:060000000A128A11142906
:10000800F000030EF1000B1810200B193020710EB0
:100018008300F00E700E090003138312061C2B20B8
:10002800861C27200B1008000313831264308100FC
:100038000B11A10A2108053C031D2628A101850AE8
:100048000508A40008000030A300A500080001303E
:10005800A3000030A500080023183520231C3A20EF
:10006800080025187820251C662008002518582027
:10007800251C4C20080003138312643081000B11E7
:10008800A10A2108053C031D2628A10185030800B3
:100098001820FF302402031D52285328080001307D
:1000A800A5000130870008003F200508A4000030A3
:1000B8002402031D6028612808000030A5000030D4
:1000C8008700080003138312643081000B11FF308E
:1000D8008500A10A2108643C031D2628A1010130DE
:1000E800A5000130870008000313831264308100E3
:1000F8000B118501A10A2108323C031D2628A10104
:0A0108000030A50000308700080059
:100200008A010A140F3982073F3406345B344F34B5
:1002100066346D347D3407347F346F3477347C3406
:1002200039345E34793471343A2151212B2125211E
:100230001C21031383121B2903138316161496140F
:100240000313831206080B1008008B178B160B1173
:100250008B150B10080003138316811281110115F1
:10026000811001140313831203138312643081007D
:100270000B110800831603178801890103138316E5
:100280008501061486148113151495140710871020
:1002900007118711831203138501860187018801E5
:1002A0000800031383160F178F120F160F14080080
:04400E00D420FF3F7C
:00000001FF
